:020000040800F2
:10000000000002208D010008D9010008D901000874
:10001000D9010008D9010008D9010008000000003A
:10002000000000000000000000000000D9010008EE
:10003000D901000800000000D9010008D90100081A
:10004000D9010008D9010008D9010008D901000828
:10005000D9010008D9010008D9010008D901000818
:10006000D9010008D9010008D9010008D901000808
:10007000D9010008D9010008D9010008D9010008F8
:10008000D9010008D9010008D9010008D9010008E8
:10009000D9010008D9010008D9010008D9010008D8
:1000A000D9010008D9010008D9010008D9010008C8
:1000B000D9010008D9010008D9010008D9010008B8
:1000C000D9010008D9010008D9010008D9010008A8
:1000D000D9010008D9010008D9010008D901000898
:1000E000D9010008D9010008D9010008D901000888
:1000F000D9010008D9010008D9010008D901000878
:10010000D9010008D9010008D9010008D901000867
:10011000D9010008D9010008D9010008D901000857
:10012000D9010008D9010008D9010008D901000847
:10013000D9010008D9010008D9010008D901000837
:10014000D9010008D9010008D9010008D901000827
:10015000D9010008D9010008D9010008D901000817
:10016000D9010008D9010008D9010008D901000807
:10017000D9010008D9010008D901000800000000D9
:08018000D9010008D9010008B3
:10018800FEE70000DFF830D00C480D490D4A002387
:1001980002E0D458C4500433C4188C42F9D30A4A34
:1001A8000A4C002301E013600432A242FBD300F0A2
:1001B80011F8FFF7E5FF704700000220000000205B
:1001C800000000203C020008000000200000002081
:1001D800FEE7000070B50D4D0D4C641BA410002601
:1001E800A64209D10B4D0C4C00F018F8641BA41062
:1001F8000026A64205D170BD55F8043B9847013644
:10020800EEE755F8043B98470136F2E70000000096
:10021800000000000000000000000000F8B500BF6A
:10022800F8BC08BC9E467047F8B500BFF8BC08BCCF
:040238009E46704727
:040000050800018D61
:00000001FF
