:020000040800F2
:1000000000000220090300085503000855030008FA
:1000100055030008550300085503000800000000C0
:100020000000000000000000000000005503000870
:100030005503000800000000550300089101000866
:100040005503000855030008550300085503000830
:100050005503000855030008550300085503000820
:100060005503000855030008550300085503000810
:100070005503000855030008550300085503000800
:1000800055030008550300085503000855030008F0
:1000900055030008550300085503000855030008E0
:1000A00055030008550300085503000855030008D0
:1000B00055030008550300085503000855030008C0
:1000C00055030008550300085503000855030008B0
:1000D00055030008550300085503000855030008A0
:1000E0005503000855030008550300085503000890
:1000F0005503000855030008550300085503000880
:10010000550300085503000855030008550300086F
:10011000550300085503000855030008550300085F
:10012000550300085503000855030008550300084F
:10013000550300085503000855030008550300083F
:10014000550300085503000855030008550300082F
:10015000550300085503000855030008550300081F
:10016000550300085503000855030008550300080F
:10017000550300085503000855030008000000005F
:080180005503000855030008B7
:1001880091010008AF01000872B62DE9F00F0D4883
:100198000168C1F800D049680160D1F800D0BDE815
:1001A800F00F62B6704707480268D2F800D0BDE881
:1001B800F00F0FBC5DF804CB01B05DF804EB01B0A3
:1001C80062B67047C0040020024A13680133136006
:1001D800FAE700BF00000020024A136801331360E9
:1001E800FAE700BF0800002008B5034A1368013386
:1001F800136000F07BF8F8E70400002008B500F071
:1002080051F8044A0449054800F022F80A2000F091
:1002180051F8FEE7E1010008F1010008D1010008EA
:1002280010B4094B4FF4C87200FB02F202F5A87132
:100238001944064C44F8301013444FF08072C3F848
:100248008C215DF8044B704710000020C404002086
:100258002DE9F04180460F46164672B60E4C04F161
:100268000803636004F11003E36064610020FFF792
:10027800D7FF0A4DC5F888810120FFF7D1FFC5F8DF
:1002880018730220FFF7CCFFC5F8A864044B1C6064
:1002980062B60120BDE8F081C404002010000020EF
:1002A800C004002072B6024B4FF47A521A607047AD
:1002B8000C00002008B54FF0E02300221A619A6173
:1002C800094A126802FB00F001385861D3F8202D62
:1002D80022F07F4242F06042C3F8202D07221A61C3
:1002E800FFF761FF08BD00BF0C0000204FF0E023BE
:1002F80000229A614FF08062C3F8042D7047000015
:10030800DFF830D00C480D490D4A002302E0D458DC
:10031800C4500433C4188C42F9D30A4A0A4C002347
:1003280001E013600432A242FBD300F011F8FFF79A
:1003380065FF704700000220000000200000002038
:10034800B803000800000020DC040020FEE70000DD
:1003580070B50D4D0D4C641BA4100026A64209D1A2
:100368000B4D0C4C00F018F8641BA4100026A64294
:1003780005D170BD55F8043B98470136EEE755F8AE
:10038800043B98470136F2E7000000000000000037
:100398000000000000000000F8B500BFF8BC08BC71
:1003A8009E467047F8B500BFF8BC08BC9E4670472B
:0400000508000309E3
:00000001FF
